{
  "_format": "hh-sol-artifact-1",
  "contractName": "FundMe",
  "sourceName": "contracts/FundMe.sol",
  "abi": [
    {
      "inputs": [],
      "stateMutability": "nonpayable",
      "type": "constructor"
    },
    {
      "stateMutability": "payable",
      "type": "fallback"
    },
    {
      "inputs": [],
      "name": "fund",
      "outputs": [],
      "stateMutability": "payable",
      "type": "function"
    },
    {
      "inputs": [],
      "name": "getRaisedAmount",
      "outputs": [
        {
          "internalType": "uint256",
          "name": "",
          "type": "uint256"
        }
      ],
      "stateMutability": "view",
      "type": "function"
    },
    {
      "inputs": [],
      "name": "withdraw",
      "outputs": [],
      "stateMutability": "nonpayable",
      "type": "function"
    },
    {
      "stateMutability": "payable",
      "type": "receive"
    }
  ],
  "bytecode": "0x60c060405234801561001057600080fd5b503373ffffffffffffffffffffffffffffffffffffffff1660a08173ffffffffffffffffffffffffffffffffffffffff168152505066470de4df8200006080818152505060805160a051610376610077600039600060ca0152600060a101526103766000f3fe6080604052600436106100385760003560e01c80633ccfd60b146100515780638e75e48214610068578063b60d42881461009357610047565b366100475761004561009d565b005b61004f61009d565b005b34801561005d57600080fd5b5061006661009f565b005b34801561007457600080fd5b5061007d6101d5565b60405161008a91906101f6565b60405180910390f35b61009b61009d565b005b565b7f000000000000000000000000000000000000000000000000000000000000000047106101985760007f000000000000000000000000000000000000000000000000000000000000000073ffffffffffffffffffffffffffffffffffffffff164760405161010c90610242565b60006040518083038185875af1925050503d8060008114610149576040519150601f19603f3d011682016040523d82523d6000602084013e61014e565b606091505b5050905080610192576040517f08c379a0000000000000000000000000000000000000000000000000000000008152600401610189906102b4565b60405180910390fd5b506101d3565b6040517f08c379a00000000000000000000000000000000000000000000000000000000081526004016101ca90610320565b60405180910390fd5b565b600047905090565b6000819050919050565b6101f0816101dd565b82525050565b600060208201905061020b60008301846101e7565b92915050565b600081905092915050565b50565b600061022c600083610211565b91506102378261021c565b600082019050919050565b600061024d8261021f565b9150819050919050565b600082825260208201905092915050565b7f6661696c656420746f2077696474687261772066756e64732100000000000000600082015250565b600061029e601983610257565b91506102a982610268565b602082019050919050565b600060208201905081810360008301526102cd81610291565b9050919050565b7f62616c616e636520646964206e6f742072656163682074617267657400000000600082015250565b600061030a601c83610257565b9150610315826102d4565b602082019050919050565b60006020820190508181036000830152610339816102fd565b905091905056fea264697066735822122090590bdce8b8938d81b90f3843c8bf75dcfe9a7a38373f0807f4d25127b1a25b64736f6c63430008130033",
  "linkReferences": {},
  "deployedLinkReferences": {}
}